{
  "_format": "hh-sol-artifact-1",
  "contractName": "BankFactory",
  "sourceName": "contracts/MultisigTrial/BankFactory.sol",
  "abi": [
    {
      "inputs": [
        {
          "internalType": "address",
          "name": "_owner",
          "type": "address"
        },
        {
          "internalType": "uint256",
          "name": "_funds",
          "type": "uint256"
        }
      ],
      "name": "createBanks",
      "outputs": [],
      "stateMutability": "nonpayable",
      "type": "function"
    },
    {
      "inputs": [],
      "name": "getBankClones",
      "outputs": [
        {
          "internalType": "contract Bank[]",
          "name": "",
          "type": "address[]"
        }
      ],
      "stateMutability": "view",
      "type": "function"
    },
    {
      "inputs": [
        {
          "internalType": "uint256",
          "name": "",
          "type": "uint256"
        }
      ],
      "name": "listOfBanks",
      "outputs": [
        {
          "internalType": "contract Bank",
          "name": "",
          "type": "address"
        }
      ],
      "stateMutability": "view",
      "type": "function"
    }
  ],
  "bytecode": "0x608060405234801561001057600080fd5b506108c5806100206000396000f3fe608060405234801561001057600080fd5b50600436106100415760003560e01c806324c3ca35146100465780634a8fa71b14610064578063a379a73714610080575b600080fd5b61004e6100b0565b60405161005b91906103b4565b60405180910390f35b61007e6004803603810190610079919061044f565b61013e565b005b61009a6004803603810190610095919061048f565b61023a565b6040516100a791906104cb565b60405180910390f35b6060600180548060200260200160405190810160405280929190818152602001828054801561013457602002820191906000526020600020905b8160009054906101000a900473ffffffffffffffffffffffffffffffffffffffff1673ffffffffffffffffffffffffffffffffffffffff16815260200190600101908083116100ea575b5050505050905090565b818160405161014c90610279565b610157929190610504565b604051809103906000f080158015610173573d6000803e3d6000fd5b506000806101000a81548173ffffffffffffffffffffffffffffffffffffffff021916908373ffffffffffffffffffffffffffffffffffffffff160217905550600160008054906101000a900473ffffffffffffffffffffffffffffffffffffffff169080600181540180825580915050600190039060005260206000200160009091909190916101000a81548173ffffffffffffffffffffffffffffffffffffffff021916908373ffffffffffffffffffffffffffffffffffffffff1602179055505050565b6001818154811061024a57600080fd5b906000526020600020016000915054906101000a900473ffffffffffffffffffffffffffffffffffffffff1681565b6103628061052e83390190565b600081519050919050565b600082825260208201905092915050565b6000819050602082019050919050565b600073ffffffffffffffffffffffffffffffffffffffff82169050919050565b6000819050919050565b60006102f76102f26102ed846102b2565b6102d2565b6102b2565b9050919050565b6000610309826102dc565b9050919050565b600061031b826102fe565b9050919050565b61032b81610310565b82525050565b600061033d8383610322565b60208301905092915050565b6000602082019050919050565b600061036182610286565b61036b8185610291565b9350610376836102a2565b8060005b838110156103a757815161038e8882610331565b975061039983610349565b92505060018101905061037a565b5085935050505092915050565b600060208201905081810360008301526103ce8184610356565b905092915050565b600080fd5b60006103e6826102b2565b9050919050565b6103f6816103db565b811461040157600080fd5b50565b600081359050610413816103ed565b92915050565b6000819050919050565b61042c81610419565b811461043757600080fd5b50565b60008135905061044981610423565b92915050565b60008060408385031215610466576104656103d6565b5b600061047485828601610404565b92505060206104858582860161043a565b9150509250929050565b6000602082840312156104a5576104a46103d6565b5b60006104b38482850161043a565b91505092915050565b6104c581610310565b82525050565b60006020820190506104e060008301846104bc565b92915050565b6104ef816103db565b82525050565b6104fe81610419565b82525050565b600060408201905061051960008301856104e6565b61052660208301846104f5565b939250505056fe608060405234801561001057600080fd5b506040516103623803806103628339818101604052810190610032919061015b565b81600160006101000a81548173ffffffffffffffffffffffffffffffffffffffff021916908373ffffffffffffffffffffffffffffffffffffffff1602179055508060008190555033600260006101000a81548173ffffffffffffffffffffffffffffffffffffffff021916908373ffffffffffffffffffffffffffffffffffffffff160217905550505061019b565b600080fd5b600073ffffffffffffffffffffffffffffffffffffffff82169050919050565b60006100f2826100c7565b9050919050565b610102816100e7565b811461010d57600080fd5b50565b60008151905061011f816100f9565b92915050565b6000819050919050565b61013881610125565b811461014357600080fd5b50565b6000815190506101558161012f565b92915050565b60008060408385031215610172576101716100c2565b5b600061018085828601610110565b925050602061019185828601610146565b9150509250929050565b6101b8806101aa6000396000f3fe608060405234801561001057600080fd5b50600436106100415760003560e01c80638da5cb5b14610046578063c89f2ce414610064578063d5f3948814610082575b600080fd5b61004e6100a0565b60405161005b9190610133565b60405180910390f35b61006c6100c6565b6040516100799190610167565b60405180910390f35b61008a6100cc565b6040516100979190610133565b60405180910390f35b600160009054906101000a900473ffffffffffffffffffffffffffffffffffffffff1681565b60005481565b600260009054906101000a900473ffffffffffffffffffffffffffffffffffffffff1681565b600073ffffffffffffffffffffffffffffffffffffffff82169050919050565b600061011d826100f2565b9050919050565b61012d81610112565b82525050565b60006020820190506101486000830184610124565b92915050565b6000819050919050565b6101618161014e565b82525050565b600060208201905061017c6000830184610158565b9291505056fea26469706673582212209f6cb79cac1dc99970b7d3af492f09e9ecd64efa0bb6745c36402c57ec80f9b064736f6c63430008180033a26469706673582212203e2fff17297f0f3c5a49f2a27aefd0d84b6b979304c02d6a1348fce7b171180364736f6c63430008180033",
  "linkReferences": {},
  "deployedLinkReferences": {}
}